{
  "contractName": "PeerMentorshipNetwork",
  "abi": [
    {
      "inputs": [],
      "stateMutability": "nonpayable",
      "type": "constructor"
    },
    {
      "anonymous": false,
      "inputs": [
        {
          "indexed": false,
          "internalType": "string",
          "name": "topic",
          "type": "string"
        },
        {
          "indexed": false,
          "internalType": "uint256",
          "name": "entryId",
          "type": "uint256"
        },
        {
          "indexed": false,
          "internalType": "string",
          "name": "content",
          "type": "string"
        },
        {
          "indexed": false,
          "internalType": "address",
          "name": "contributor",
          "type": "address"
        }
      ],
      "name": "ContributionAdded",
      "type": "event"
    },
    {
      "anonymous": false,
      "inputs": [
        {
          "indexed": false,
          "internalType": "string",
          "name": "topic",
          "type": "string"
        },
        {
          "indexed": false,
          "internalType": "uint256",
          "name": "entryId",
          "type": "uint256"
        },
        {
          "indexed": false,
          "internalType": "string",
          "name": "content",
          "type": "string"
        },
        {
          "indexed": false,
          "internalType": "address",
          "name": "contributor",
          "type": "address"
        }
      ],
      "name": "EntryCreated",
      "type": "event"
    },
    {
      "inputs": [
        {
          "internalType": "uint256",
          "name": "",
          "type": "uint256"
        }
      ],
      "name": "hashedTopics",
      "outputs": [
        {
          "internalType": "bytes32",
          "name": "",
          "type": "bytes32"
        }
      ],
      "stateMutability": "view",
      "type": "function"
    },
    {
      "inputs": [
        {
          "internalType": "string",
          "name": "topic",
          "type": "string"
        },
        {
          "internalType": "uint256",
          "name": "entryId",
          "type": "uint256"
        },
        {
          "internalType": "string",
          "name": "content",
          "type": "string"
        },
        {
          "internalType": "uint256",
          "name": "nonce",
          "type": "uint256"
        }
      ],
      "name": "createEntry",
      "outputs": [],
      "stateMutability": "nonpayable",
      "type": "function"
    },
    {
      "inputs": [
        {
          "internalType": "string",
          "name": "topic",
          "type": "string"
        },
        {
          "internalType": "uint256",
          "name": "entryId",
          "type": "uint256"
        },
        {
          "internalType": "string",
          "name": "content",
          "type": "string"
        },
        {
          "internalType": "uint256",
          "name": "nonce",
          "type": "uint256"
        }
      ],
      "name": "appendContribution",
      "outputs": [],
      "stateMutability": "nonpayable",
      "type": "function"
    },
    {
      "inputs": [
        {
          "internalType": "string",
          "name": "topic",
          "type": "string"
        },
        {
          "internalType": "uint256",
          "name": "entryId",
          "type": "uint256"
        }
      ],
      "name": "fetchContributions",
      "outputs": [
        {
          "internalType": "string[]",
          "name": "contents",
          "type": "string[]"
        },
        {
          "internalType": "address[]",
          "name": "contributors",
          "type": "address[]"
        },
        {
          "internalType": "uint256[]",
          "name": "timestamps",
          "type": "uint256[]"
        }
      ],
      "stateMutability": "view",
      "type": "function"
    },
    {
      "inputs": [],
      "name": "getChallengeThreshold",
      "outputs": [
        {
          "internalType": "uint256",
          "name": "",
          "type": "uint256"
        }
      ],
      "stateMutability": "view",
      "type": "function"
    }
  ],
  "bytecode": "0x60806040527e010000000000000000000000000000000000000000000000000000000000006002553480156200003457600080fd5b50600160405160200162000048906200021c565b60405160208183030381529060405280519060200120908060018154018082558091505060019003906000526020600020016000909190919091505560016040516020016200009790620001ee565b6040516020818303038152906040528051906020012090806001815401808255809150506001900390600052602060002001600090919091909150556001604051602001620000e69062000205565b6040516020818303038152906040528051906020012090806001815401808255809150506001900390600052602060002001600090919091909150556200023e565b600062000137600d8362000233565b91507f496e7465727669657750726570000000000000000000000000000000000000006000830152600d82019050919050565b600062000179600e8362000233565b91507f43617265657247756964616e63650000000000000000000000000000000000006000830152600e82019050919050565b6000620001bb600a8362000233565b91507f4d656e746f7273686970000000000000000000000000000000000000000000006000830152600a82019050919050565b6000620001fb8262000128565b9150819050919050565b600062000212826200016a565b9150819050919050565b60006200022982620001ac565b9150819050919050565b600081905092915050565b6116ac806200024e6000396000f3fe608060405234801561001057600080fd5b50600436106100575760003560e01c80639b0e04ea1461005c578063a913963e1461008c578063da45f9a5146100be578063dd19b0ba146100da578063e465f4eb146100f6575b600080fd5b61007660048036038101906100719190610e39565b610114565b6040516100839190611267565b60405180910390f35b6100a660048036038101906100a19190610d52565b610138565b6040516100b59392919061121b565b60405180910390f35b6100d860048036038101906100d39190610da6565b610619565b005b6100f460048036038101906100ef9190610da6565b610901565b005b6100fe610be9565b60405161010b9190611355565b60405180910390f35b6001818154811061012457600080fd5b906000526020600020016000915090505481565b60608060608460008160405160200161015191906111dc565b6040516020818303038152906040528051906020012090506000805b6001805490508110156101e25782600182815481106101b5577f4e487b7100000000000000000000000000000000000000000000000000000000600052603260045260246000fd5b906000526020600020015414156101cf57600191506101e2565b80806101da9061156e565b91505061016d565b5080610223576040517f08c379a000000000000000000000000000000000000000000000000000000000815260040161021a90611315565b60405180910390fd5b6000808960405161023491906111dc565b9081526020016040518091039020600089815260200190815260200160002080549050905060008167ffffffffffffffff81111561029b577f4e487b7100000000000000000000000000000000000000000000000000000000600052604160045260246000fd5b6040519080825280602002602001820160405280156102ce57816020015b60608152602001906001900390816102b95790505b50905060008267ffffffffffffffff811115610313577f4e487b7100000000000000000000000000000000000000000000000000000000600052604160045260246000fd5b6040519080825280602002602001820160405280156103415781602001602082028036833780820191505090505b50905060008367ffffffffffffffff811115610386577f4e487b7100000000000000000000000000000000000000000000000000000000600052604160045260246000fd5b6040519080825280602002602001820160405280156103b45781602001602082028036833780820191505090505b50905060005b84811015610601576000808e6040516103d391906111dc565b908152602001604051809103902060008e8152602001908152602001600020828154811061042a577f4e487b7100000000000000000000000000000000000000000000000000000000600052603260045260246000fd5b906000526020600020906003020190508060000180546104499061153c565b80601f01602080910402602001604051908101604052809291908181526020018280546104759061153c565b80156104c25780601f10610497576101008083540402835291602001916104c2565b820191906000526020600020905b8154815290600101906020018083116104a557829003601f168201915b5050505050858381518110610500577f4e487b7100000000000000000000000000000000000000000000000000000000600052603260045260246000fd5b60200260200101819052508060010160009054906101000a900473ffffffffffffffffffffffffffffffffffffffff16848381518110610569577f4e487b7100000000000000000000000000000000000000000000000000000000600052603260045260246000fd5b602002602001019073ffffffffffffffffffffffffffffffffffffffff16908173ffffffffffffffffffffffffffffffffffffffff168152505080600201548383815181106105e1577f4e487b7100000000000000000000000000000000000000000000000000000000600052603260045260246000fd5b6020026020010181815250505080806105f99061156e565b9150506103ba565b50828282995099509950505050505050509250925092565b8360008160405160200161062d91906111dc565b6040516020818303038152906040528051906020012090506000805b6001805490508110156106be578260018281548110610691577f4e487b7100000000000000000000000000000000000000000000000000000000600052603260045260246000fd5b906000526020600020015414156106ab57600191506106be565b80806106b69061156e565b915050610649565b50806106ff576040517f08c379a00000000000000000000000000000000000000000000000000000000081526004016106f690611315565b60405180910390fd5b6000808860405161071091906111dc565b908152602001604051809103902060008881526020019081526020016000208054905011610773576040517f08c379a000000000000000000000000000000000000000000000000000000000815260040161076a90611335565b60405180910390fd5b61077d8585610bf3565b6107bc576040517f08c379a00000000000000000000000000000000000000000000000000000000081526004016107b3906112d5565b60405180910390fd5b600060405180606001604052808781526020013373ffffffffffffffffffffffffffffffffffffffff16815260200142815250905060008860405161080191906111dc565b908152602001604051809103902060008881526020019081526020016000208190806001815401808255809150506001900390600052602060002090600302016000909190919091506000820151816000019080519060200190610866929190610c32565b5060208201518160010160006101000a81548173ffffffffffffffffffffffffffffffffffffffff021916908373ffffffffffffffffffffffffffffffffffffffff1602179055506040820151816002015550507f0e63a66ea49ddb5b2c4e6ed81af74f2b3a8ca751a7f3258ae7956a61376c0229888888336040516108ef9493929190611282565b60405180910390a15050505050505050565b8360008160405160200161091591906111dc565b6040516020818303038152906040528051906020012090506000805b6001805490508110156109a6578260018281548110610979577f4e487b7100000000000000000000000000000000000000000000000000000000600052603260045260246000fd5b9060005260206000200154141561099357600191506109a6565b808061099e9061156e565b915050610931565b50806109e7576040517f08c379a00000000000000000000000000000000000000000000000000000000081526004016109de90611315565b60405180910390fd5b600080886040516109f891906111dc565b908152602001604051809103902060008881526020019081526020016000208054905014610a5b576040517f08c379a0000000000000000000000000000000000000000000000000000000008152600401610a52906112f5565b60405180910390fd5b610a658585610bf3565b610aa4576040517f08c379a0000000000000000000000000000000000000000000000000000000008152600401610a9b906112d5565b60405180910390fd5b600060405180606001604052808781526020013373ffffffffffffffffffffffffffffffffffffffff168152602001428152509050600088604051610ae991906111dc565b908152602001604051809103902060008881526020019081526020016000208190806001815401808255809150506001900390600052602060002090600302016000909190919091506000820151816000019080519060200190610b4e929190610c32565b5060208201518160010160006101000a81548173ffffffffffffffffffffffffffffffffffffffff021916908373ffffffffffffffffffffffffffffffffffffffff1602179055506040820151816002015550507f4fd401bee30b17df27006b5d7ec54502fa5d96510a79294f3ad9d4e4ffb58fae88888833604051610bd79493929190611282565b60405180910390a15050505050505050565b6000600254905090565b6000808383604051602001610c099291906111f3565b6040516020818303038152906040528051906020012090506002548160001c1091505092915050565b828054610c3e9061153c565b90600052602060002090601f016020900481019282610c605760008555610ca7565b82601f10610c7957805160ff1916838001178555610ca7565b82800160010185558215610ca7579182015b82811115610ca6578251825591602001919060010190610c8b565b5b509050610cb49190610cb8565b5090565b5b80821115610cd1576000816000905550600101610cb9565b5090565b6000610ce8610ce3846113a1565b611370565b905082815260208101848484011115610d0057600080fd5b610d0b8482856114fa565b509392505050565b600082601f830112610d2457600080fd5b8135610d34848260208601610cd5565b91505092915050565b600081359050610d4c8161165f565b92915050565b60008060408385031215610d6557600080fd5b600083013567ffffffffffffffff811115610d7f57600080fd5b610d8b85828601610d13565b9250506020610d9c85828601610d3d565b9150509250929050565b60008060008060808587031215610dbc57600080fd5b600085013567ffffffffffffffff811115610dd657600080fd5b610de287828801610d13565b9450506020610df387828801610d3d565b935050604085013567ffffffffffffffff811115610e1057600080fd5b610e1c87828801610d13565b9250506060610e2d87828801610d3d565b91505092959194509250565b600060208284031215610e4b57600080fd5b6000610e5984828501610d3d565b91505092915050565b6000610e6e8383610ea6565b60208301905092915050565b6000610e868383611004565b905092915050565b6000610e9a83836111a7565b60208301905092915050565b610eaf816114b4565b82525050565b610ebe816114b4565b82525050565b6000610ecf82611401565b610ed98185611454565b9350610ee4836113d1565b8060005b83811015610f15578151610efc8882610e62565b9750610f078361142d565b925050600181019050610ee8565b5085935050505092915050565b6000610f2d8261140c565b610f378185611465565b935083602082028501610f49856113e1565b8060005b85811015610f855784840389528151610f668582610e7a565b9450610f718361143a565b925060208a01995050600181019050610f4d565b50829750879550505050505092915050565b6000610fa282611417565b610fac8185611476565b9350610fb7836113f1565b8060005b83811015610fe8578151610fcf8882610e8e565b9750610fda83611447565b925050600181019050610fbb565b5085935050505092915050565b610ffe816114c6565b82525050565b600061100f82611422565b6110198185611487565b9350611029818560208601611509565b6110328161164e565b840191505092915050565b600061104882611422565b6110528185611498565b9350611062818560208601611509565b61106b8161164e565b840191505092915050565b600061108182611422565b61108b81856114a9565b935061109b818560208601611509565b80840191505092915050565b60006110b4601783611498565b91507f50726f6f662076616c69646174696f6e206661696c65640000000000000000006000830152602082019050919050565b60006110f4601483611498565b91507f456e74727920616c7265616479206578697374730000000000000000000000006000830152602082019050919050565b6000611134600d83611498565b91507f496e76616c696420746f706963000000000000000000000000000000000000006000830152602082019050919050565b6000611174601483611498565b91507f456e74727920646f6573206e6f742065786973740000000000000000000000006000830152602082019050919050565b6111b0816114f0565b82525050565b6111bf816114f0565b82525050565b6111d66111d1826114f0565b6115b7565b82525050565b60006111e88284611076565b915081905092915050565b60006111ff8285611076565b915061120b82846111c5565b6020820191508190509392505050565b600060608201905081810360008301526112358186610f22565b905081810360208301526112498185610ec4565b9050818103604083015261125d8184610f97565b9050949350505050565b600060208201905061127c6000830184610ff5565b92915050565b6000608082019050818103600083015261129c818761103d565b90506112ab60208301866111b6565b81810360408301526112bd818561103d565b90506112cc6060830184610eb5565b95945050505050565b600060208201905081810360008301526112ee816110a7565b9050919050565b6000602082019050818103600083015261130e816110e7565b9050919050565b6000602082019050818103600083015261132e81611127565b9050919050565b6000602082019050818103600083015261134e81611167565b9050919050565b600060208201905061136a60008301846111b6565b92915050565b6000604051905081810181811067ffffffffffffffff821117156113975761139661161f565b5b8060405250919050565b600067ffffffffffffffff8211156113bc576113bb61161f565b5b601f19601f8301169050602081019050919050565b6000819050602082019050919050565b6000819050602082019050919050565b6000819050602082019050919050565b600081519050919050565b600081519050919050565b600081519050919050565b600081519050919050565b6000602082019050919050565b6000602082019050919050565b6000602082019050919050565b600082825260208201905092915050565b600082825260208201905092915050565b600082825260208201905092915050565b600082825260208201905092915050565b600082825260208201905092915050565b600081905092915050565b60006114bf826114d0565b9050919050565b6000819050919050565b600073ffffffffffffffffffffffffffffffffffffffff82169050919050565b6000819050919050565b82818337600083830152505050565b60005b8381101561152757808201518184015260208101905061150c565b83811115611536576000848401525b50505050565b6000600282049050600182168061155457607f821691505b60208210811415611568576115676115f0565b5b50919050565b6000611579826114f0565b91507fffffffffffffffffffffffffffffffffffffffffffffffffffffffffffffffff8214156115ac576115ab6115c1565b5b600182019050919050565b6000819050919050565b7f4e487b7100000000000000000000000000000000000000000000000000000000600052601160045260246000fd5b7f4e487b7100000000000000000000000000000000000000000000000000000000600052602260045260246000fd5b7f4e487b7100000000000000000000000000000000000000000000000000000000600052604160045260246000fd5b6000601f19601f8301169050919050565b611668816114f0565b811461167357600080fd5b5056fea264697066735822122015597684d2015dd105c910257dcb44b770b8f969a72372e4c11692acfdd0612464736f6c63430008000033",
  "immutableReferences": {},
  "source": "// SPDX-License-Identifier: MIT\r\npragma solidity ^0.8.0;\r\n\r\ncontract PeerMentorshipNetwork {\r\n    // Struct to represent a single contribution in the mentorship network\r\n    struct Contribution {\r\n        string content;       // The contribution's content (e.g., mentorship tip or interview question)\r\n        address contributor;  // Address of the user who submitted the contribution\r\n        uint256 createdAt;    // Timestamp when the contribution was created\r\n    }\r\n\r\n    // Mapping to store chains of contributions by topic and entry ID\r\n    // Each topic maps to a specific entry ID, which in turn maps to an array of contributions\r\n    mapping(string => mapping(uint256 => Contribution[])) private dataChains;\r\n\r\n    // Array to store hashed versions of predefined valid topics\r\n    bytes32[] public hashedTopics;\r\n\r\n    // A threshold value for the computational mining challenge\r\n    uint256 private challengeThreshold = 2**240;\r\n\r\n    // Events to notify when entries or contributions are created\r\n    event EntryCreated(string topic, uint256 entryId, string content, address contributor);\r\n    event ContributionAdded(string topic, uint256 entryId, string content, address contributor);\r\n\r\n    // Constructor to initialize the predefined valid topics\r\n    constructor() {\r\n        // Pre-hashing topics for efficient validation later\r\n        hashedTopics.push(keccak256(abi.encodePacked(\"Mentorship\")));\r\n        hashedTopics.push(keccak256(abi.encodePacked(\"InterviewPrep\")));\r\n        hashedTopics.push(keccak256(abi.encodePacked(\"CareerGuidance\")));\r\n    }\r\n\r\n    // Modifier to verify that the provided topic is valid\r\n    modifier verifyTopic(string memory topic) {\r\n        bytes32 topicHash = keccak256(abi.encodePacked(topic)); // Hash the provided topic\r\n        bool valid = false;\r\n\r\n        // Check if the hashed topic exists in the hashedTopics array\r\n        for (uint256 i = 0; i < hashedTopics.length; i++) {\r\n            if (hashedTopics[i] == topicHash) {\r\n                valid = true;\r\n                break;\r\n            }\r\n        }\r\n        require(valid, \"Invalid topic\"); // Revert if the topic is not valid\r\n        _;\r\n    }\r\n\r\n    // Private function to validate a computational proof (mining challenge)\r\n    function isValidProof(string memory input, uint256 nonce) private view returns (bool) {\r\n        // Combine the input and nonce, then hash them\r\n        bytes32 hashOutput = keccak256(abi.encodePacked(input, nonce));\r\n        // Check if the hash output is below the challenge threshold\r\n        return uint256(hashOutput) < challengeThreshold;\r\n    }\r\n\r\n    // Function to create a new entry with an initial contribution\r\n    function createEntry(string memory topic, uint256 entryId, string memory content, uint256 nonce)\r\n        public\r\n        verifyTopic(topic) // Ensure the topic is valid\r\n    {\r\n        // Ensure the entry ID for the topic does not already exist\r\n        require(dataChains[topic][entryId].length == 0, \"Entry already exists\");\r\n        // Validate the mining challenge with the content and nonce\r\n        require(isValidProof(content, nonce), \"Proof validation failed\");\r\n\r\n        // Create the initial contribution\r\n        Contribution memory initialContribution = Contribution({\r\n            content: content,\r\n            contributor: msg.sender, // Sender of the transaction\r\n            createdAt: block.timestamp // Current block timestamp\r\n        });\r\n\r\n        // Store the contribution in the dataChains mapping\r\n        dataChains[topic][entryId].push(initialContribution);\r\n\r\n        // Emit an event to notify that a new entry was created\r\n        emit EntryCreated(topic, entryId, content, msg.sender);\r\n    }\r\n\r\n    // Function to append a new contribution to an existing entry\r\n    function appendContribution(string memory topic, uint256 entryId, string memory content, uint256 nonce)\r\n        public\r\n        verifyTopic(topic) // Ensure the topic is valid\r\n    {\r\n        // Ensure the entry ID for the topic exists\r\n        require(dataChains[topic][entryId].length > 0, \"Entry does not exist\");\r\n        // Validate the mining challenge with the content and nonce\r\n        require(isValidProof(content, nonce), \"Proof validation failed\");\r\n\r\n        // Create the new contribution\r\n        Contribution memory newContribution = Contribution({\r\n            content: content,\r\n            contributor: msg.sender, // Sender of the transaction\r\n            createdAt: block.timestamp // Current block timestamp\r\n        });\r\n\r\n        // Append the contribution to the chain in the dataChains mapping\r\n        dataChains[topic][entryId].push(newContribution);\r\n\r\n        // Emit an event to notify that a new contribution was added\r\n        emit ContributionAdded(topic, entryId, content, msg.sender);\r\n    }\r\n\r\n    // Function to fetch the contributions for a specific entry\r\n    function fetchContributions(string memory topic, uint256 entryId)\r\n        public\r\n        view\r\n        verifyTopic(topic) // Ensure the topic is valid\r\n        returns (\r\n            string[] memory contents,     // Array of contribution contents\r\n            address[] memory contributors, // Array of contributor addresses\r\n            uint256[] memory timestamps    // Array of contribution timestamps\r\n        )\r\n    {\r\n        // Get the number of contributions in the specified chain\r\n        uint256 chainLength = dataChains[topic][entryId].length;\r\n\r\n        // Create arrays to store the contributions' details\r\n        string[] memory collectedContents = new string[](chainLength);\r\n        address[] memory collectedContributors = new address[](chainLength);\r\n        uint256[] memory collectedTimestamps = new uint256[](chainLength);\r\n\r\n        // Loop through the chain and populate the arrays\r\n        for (uint256 i = 0; i < chainLength; i++) {\r\n            Contribution storage current = dataChains[topic][entryId][i];\r\n            collectedContents[i] = current.content;\r\n            collectedContributors[i] = current.contributor;\r\n            collectedTimestamps[i] = current.createdAt;\r\n        }\r\n\r\n        // Return the arrays\r\n        return (collectedContents, collectedContributors, collectedTimestamps);\r\n    }\r\n\r\n    // Function to get the current mining challenge threshold\r\n    function getChallengeThreshold() public view returns (uint256) {\r\n        return challengeThreshold; // Return the private threshold value\r\n    }\r\n}\r\n",
  "sourcePath": "C:\\Users\\sophi\\src\\CS4207-Blockchain-Project\\contracts\\PeerMentorshipNetwork.sol",
  "compiler": {
    "name": "solc",
    "version": "0.8.0+commit.c7dfd78e.Emscripten.clang"
  },
  "schemaVersion": "3.4.16",
  "updatedAt": "2024-12-08T20:58:47.444Z",
  "devdoc": {
    "kind": "dev",
    "methods": {},
    "version": 1
  },
  "userdoc": {
    "kind": "user",
    "methods": {},
    "version": 1
  }
}