{
  "contractName": "StudentFeatures",
  "abi": [
    {
      "inputs": [],
      "stateMutability": "nonpayable",
      "type": "constructor"
    },
    {
      "inputs": [],
      "name": "AccessControlBadConfirmation",
      "type": "error"
    },
    {
      "inputs": [
        {
          "internalType": "address",
          "name": "account",
          "type": "address"
        },
        {
          "internalType": "bytes32",
          "name": "neededRole",
          "type": "bytes32"
        }
      ],
      "name": "AccessControlUnauthorizedAccount",
      "type": "error"
    },
    {
      "anonymous": false,
      "inputs": [
        {
          "indexed": false,
          "internalType": "uint256",
          "name": "courseId",
          "type": "uint256"
        },
        {
          "indexed": false,
          "internalType": "string",
          "name": "name",
          "type": "string"
        },
        {
          "indexed": false,
          "internalType": "uint256",
          "name": "maxSeats",
          "type": "uint256"
        }
      ],
      "name": "CourseAdded",
      "type": "event"
    },
    {
      "anonymous": false,
      "inputs": [
        {
          "indexed": true,
          "internalType": "address",
          "name": "student",
          "type": "address"
        },
        {
          "indexed": false,
          "internalType": "uint256",
          "name": "courseId",
          "type": "uint256"
        }
      ],
      "name": "CourseEnrolled",
      "type": "event"
    },
    {
      "anonymous": false,
      "inputs": [
        {
          "indexed": true,
          "internalType": "address",
          "name": "student",
          "type": "address"
        },
        {
          "indexed": false,
          "internalType": "address",
          "name": "mentor",
          "type": "address"
        }
      ],
      "name": "MentorAssigned",
      "type": "event"
    },
    {
      "anonymous": false,
      "inputs": [
        {
          "indexed": true,
          "internalType": "address",
          "name": "uploader",
          "type": "address"
        },
        {
          "indexed": false,
          "internalType": "string",
          "name": "title",
          "type": "string"
        }
      ],
      "name": "ResourceShared",
      "type": "event"
    },
    {
      "anonymous": false,
      "inputs": [
        {
          "indexed": true,
          "internalType": "bytes32",
          "name": "role",
          "type": "bytes32"
        },
        {
          "indexed": true,
          "internalType": "bytes32",
          "name": "previousAdminRole",
          "type": "bytes32"
        },
        {
          "indexed": true,
          "internalType": "bytes32",
          "name": "newAdminRole",
          "type": "bytes32"
        }
      ],
      "name": "RoleAdminChanged",
      "type": "event"
    },
    {
      "anonymous": false,
      "inputs": [
        {
          "indexed": true,
          "internalType": "bytes32",
          "name": "role",
          "type": "bytes32"
        },
        {
          "indexed": true,
          "internalType": "address",
          "name": "account",
          "type": "address"
        },
        {
          "indexed": true,
          "internalType": "address",
          "name": "sender",
          "type": "address"
        }
      ],
      "name": "RoleGranted",
      "type": "event"
    },
    {
      "anonymous": false,
      "inputs": [
        {
          "indexed": true,
          "internalType": "bytes32",
          "name": "role",
          "type": "bytes32"
        },
        {
          "indexed": true,
          "internalType": "address",
          "name": "account",
          "type": "address"
        },
        {
          "indexed": true,
          "internalType": "address",
          "name": "sender",
          "type": "address"
        }
      ],
      "name": "RoleRevoked",
      "type": "event"
    },
    {
      "inputs": [],
      "name": "ADMIN_ROLE",
      "outputs": [
        {
          "internalType": "bytes32",
          "name": "",
          "type": "bytes32"
        }
      ],
      "stateMutability": "view",
      "type": "function"
    },
    {
      "inputs": [],
      "name": "DEFAULT_ADMIN_ROLE",
      "outputs": [
        {
          "internalType": "bytes32",
          "name": "",
          "type": "bytes32"
        }
      ],
      "stateMutability": "view",
      "type": "function"
    },
    {
      "inputs": [],
      "name": "MENTOR_ROLE",
      "outputs": [
        {
          "internalType": "bytes32",
          "name": "",
          "type": "bytes32"
        }
      ],
      "stateMutability": "view",
      "type": "function"
    },
    {
      "inputs": [],
      "name": "STUDENT_ROLE",
      "outputs": [
        {
          "internalType": "bytes32",
          "name": "",
          "type": "bytes32"
        }
      ],
      "stateMutability": "view",
      "type": "function"
    },
    {
      "inputs": [
        {
          "internalType": "uint256",
          "name": "",
          "type": "uint256"
        }
      ],
      "name": "courses",
      "outputs": [
        {
          "internalType": "string",
          "name": "name",
          "type": "string"
        },
        {
          "internalType": "uint256",
          "name": "maxSeats",
          "type": "uint256"
        },
        {
          "internalType": "uint256",
          "name": "enrolledCount",
          "type": "uint256"
        }
      ],
      "stateMutability": "view",
      "type": "function"
    },
    {
      "inputs": [
        {
          "internalType": "bytes32",
          "name": "role",
          "type": "bytes32"
        }
      ],
      "name": "getRoleAdmin",
      "outputs": [
        {
          "internalType": "bytes32",
          "name": "",
          "type": "bytes32"
        }
      ],
      "stateMutability": "view",
      "type": "function"
    },
    {
      "inputs": [
        {
          "internalType": "bytes32",
          "name": "role",
          "type": "bytes32"
        },
        {
          "internalType": "address",
          "name": "account",
          "type": "address"
        }
      ],
      "name": "grantRole",
      "outputs": [],
      "stateMutability": "nonpayable",
      "type": "function"
    },
    {
      "inputs": [
        {
          "internalType": "bytes32",
          "name": "role",
          "type": "bytes32"
        },
        {
          "internalType": "address",
          "name": "account",
          "type": "address"
        }
      ],
      "name": "hasRole",
      "outputs": [
        {
          "internalType": "bool",
          "name": "",
          "type": "bool"
        }
      ],
      "stateMutability": "view",
      "type": "function"
    },
    {
      "inputs": [
        {
          "internalType": "address",
          "name": "",
          "type": "address"
        },
        {
          "internalType": "uint256",
          "name": "",
          "type": "uint256"
        }
      ],
      "name": "mentors",
      "outputs": [
        {
          "internalType": "address",
          "name": "",
          "type": "address"
        }
      ],
      "stateMutability": "view",
      "type": "function"
    },
    {
      "inputs": [
        {
          "internalType": "bytes32",
          "name": "role",
          "type": "bytes32"
        },
        {
          "internalType": "address",
          "name": "callerConfirmation",
          "type": "address"
        }
      ],
      "name": "renounceRole",
      "outputs": [],
      "stateMutability": "nonpayable",
      "type": "function"
    },
    {
      "inputs": [
        {
          "internalType": "uint256",
          "name": "",
          "type": "uint256"
        }
      ],
      "name": "resources",
      "outputs": [
        {
          "internalType": "string",
          "name": "title",
          "type": "string"
        },
        {
          "internalType": "string",
          "name": "url",
          "type": "string"
        },
        {
          "internalType": "address",
          "name": "uploader",
          "type": "address"
        }
      ],
      "stateMutability": "view",
      "type": "function"
    },
    {
      "inputs": [
        {
          "internalType": "bytes32",
          "name": "role",
          "type": "bytes32"
        },
        {
          "internalType": "address",
          "name": "account",
          "type": "address"
        }
      ],
      "name": "revokeRole",
      "outputs": [],
      "stateMutability": "nonpayable",
      "type": "function"
    },
    {
      "inputs": [
        {
          "internalType": "address",
          "name": "",
          "type": "address"
        },
        {
          "internalType": "uint256",
          "name": "",
          "type": "uint256"
        }
      ],
      "name": "studentEnrollments",
      "outputs": [
        {
          "internalType": "uint256",
          "name": "",
          "type": "uint256"
        }
      ],
      "stateMutability": "view",
      "type": "function"
    },
    {
      "inputs": [
        {
          "internalType": "bytes4",
          "name": "interfaceId",
          "type": "bytes4"
        }
      ],
      "name": "supportsInterface",
      "outputs": [
        {
          "internalType": "bool",
          "name": "",
          "type": "bool"
        }
      ],
      "stateMutability": "view",
      "type": "function"
    },
    {
      "inputs": [
        {
          "internalType": "address",
          "name": "account",
          "type": "address"
        },
        {
          "internalType": "bytes32",
          "name": "role",
          "type": "bytes32"
        }
      ],
      "name": "assignRole",
      "outputs": [],
      "stateMutability": "nonpayable",
      "type": "function"
    },
    {
      "inputs": [
        {
          "internalType": "uint256",
          "name": "courseId",
          "type": "uint256"
        },
        {
          "internalType": "string",
          "name": "name",
          "type": "string"
        },
        {
          "internalType": "uint256",
          "name": "maxSeats",
          "type": "uint256"
        }
      ],
      "name": "addCourse",
      "outputs": [],
      "stateMutability": "nonpayable",
      "type": "function"
    },
    {
      "inputs": [
        {
          "internalType": "uint256",
          "name": "courseId",
          "type": "uint256"
        }
      ],
      "name": "enrollInCourse",
      "outputs": [],
      "stateMutability": "nonpayable",
      "type": "function"
    },
    {
      "inputs": [
        {
          "internalType": "address",
          "name": "mentor",
          "type": "address"
        }
      ],
      "name": "assignMentor",
      "outputs": [],
      "stateMutability": "nonpayable",
      "type": "function"
    },
    {
      "inputs": [
        {
          "internalType": "address",
          "name": "student",
          "type": "address"
        }
      ],
      "name": "getMentors",
      "outputs": [
        {
          "internalType": "address[]",
          "name": "",
          "type": "address[]"
        }
      ],
      "stateMutability": "view",
      "type": "function"
    },
    {
      "inputs": [
        {
          "internalType": "string",
          "name": "title",
          "type": "string"
        },
        {
          "internalType": "string",
          "name": "url",
          "type": "string"
        }
      ],
      "name": "shareResource",
      "outputs": [],
      "stateMutability": "nonpayable",
      "type": "function"
    },
    {
      "inputs": [],
      "name": "getResources",
      "outputs": [
        {
          "components": [
            {
              "internalType": "string",
              "name": "title",
              "type": "string"
            },
            {
              "internalType": "string",
              "name": "url",
              "type": "string"
            },
            {
              "internalType": "address",
              "name": "uploader",
              "type": "address"
            }
          ],
          "internalType": "struct StudentFeatures.Resource[]",
          "name": "",
          "type": "tuple[]"
        }
      ],
      "stateMutability": "view",
      "type": "function"
    }
  ],
  "bytecode": "0x608060405234801562000010575f80fd5b50620000437fa49807205ce4d355092ef5a8a18f56e8913cf4a201fbe287825b095693c2177533620000ee60201b60201c565b50620000967f36a5c4aaacb6b388bbd448bf11096b7dafc5652bcc9046084fd0e95b1fb0b2cc7fa49807205ce4d355092ef5a8a18f56e8913cf4a201fbe287825b095693c21775620001e960201b60201c565b620000e87fbc89434ca2514fee8e4f1c01e12ea3f98386861885da7e20823bb874ad54a49d7fa49807205ce4d355092ef5a8a18f56e8913cf4a201fbe287825b095693c21775620001e960201b60201c565b620002cf565b5f6200010183836200024960201b60201c565b620001df5760015f808581526020019081526020015f205f015f8473ffffffffffffffffffffffffffffffffffffffff1673ffffffffffffffffffffffffffffffffffffffff1681526020019081526020015f205f6101000a81548160ff0219169083151502179055506200017b620002ac60201b60201c565b73ffffffffffffffffffffffffffffffffffffffff168273ffffffffffffffffffffffffffffffffffffffff16847f2f8788117e7eff1d82e926ec794901d17c78024a50270940304540a733656f0d60405160405180910390a460019050620001e3565b5f90505b92915050565b5f620001fb83620002b360201b60201c565b9050815f808581526020019081526020015f20600101819055508181847fbd79b86ffe0ab8e8776151514217cd7cacd52c909f66475c3af44e129f0b00ff60405160405180910390a4505050565b5f805f8481526020019081526020015f205f015f8373ffffffffffffffffffffffffffffffffffffffff1673ffffffffffffffffffffffffffffffffffffffff1681526020019081526020015f205f9054906101000a900460ff16905092915050565b5f33905090565b5f805f8381526020019081526020015f20600101549050919050565b6120ae80620002dd5f395ff3fe608060405234801561000f575f80fd5b5060043610610135575f3560e01c806375b238fc116100b6578063a217fddf1161007a578063a217fddf14610383578063bde55907146103a1578063c1cc57b0146103bf578063d547741f146103dd578063f4278be7146103f9578063f7be43fb1461041557610135565b806375b238fc146102b757806391d14854146102d557806396f979d214610305578063978f2197146103375780639b85c6601461036757610135565b80632f2ff15d116100fd5780632f2ff15d1461021757806336568abe146102335780635645541f1461024f5780635e52da271461026b5780636f46f1791461028757610135565b806301ffc9a7146101395780630a4ad7fe146101695780631d9486de14610199578063244d6daa146101b5578063248a9ca3146101e7575b5f80fd5b610153600480360381019061014e91906113b2565b610433565b60405161016091906113f7565b60405180910390f35b610183600480360381019061017e919061149d565b6104ac565b60405161019091906114ea565b60405180910390f35b6101b360048036038101906101ae9190611536565b6104d7565b005b6101cf60048036038101906101ca9190611574565b610510565b6040516101de93929190611638565b60405180910390f35b61020160048036038101906101fc919061167b565b610670565b60405161020e91906116b5565b60405180910390f35b610231600480360381019061022c91906116ce565b61068c565b005b61024d600480360381019061024891906116ce565b6106ae565b005b61026960048036038101906102649190611838565b610729565b005b61028560048036038101906102809190611574565b6107eb565b005b6102a1600480360381019061029c919061149d565b61095a565b6040516102ae91906118a4565b60405180910390f35b6102bf6109a2565b6040516102cc91906116b5565b60405180910390f35b6102ef60048036038101906102ea91906116ce565b6109c6565b6040516102fc91906113f7565b60405180910390f35b61031f600480360381019061031a9190611574565b610a29565b60405161032e939291906118bd565b60405180910390f35b610351600480360381019061034c91906118f9565b610ad5565b60405161035e91906119db565b60405180910390f35b610381600480360381019061037c91906119fb565b610b9d565b005b61038b610ce5565b60405161039891906116b5565b60405180910390f35b6103a9610ceb565b6040516103b691906116b5565b60405180910390f35b6103c7610d0f565b6040516103d49190611bc8565b60405180910390f35b6103f760048036038101906103f291906116ce565b610edf565b005b610413600480360381019061040e91906118f9565b610f01565b005b61041d611081565b60405161042a91906116b5565b60405180910390f35b5f7f7965db0b000000000000000000000000000000000000000000000000000000007bffffffffffffffffffffffffffffffffffffffffffffffffffffffff1916827bffffffffffffffffffffffffffffffffffffffffffffffffffffffff191614806104a557506104a4826110a5565b5b9050919050565b6002602052815f5260405f2081815481106104c5575f80fd5b905f5260205f20015f91509150505481565b7fa49807205ce4d355092ef5a8a18f56e8913cf4a201fbe287825b095693c217756105018161110e565b61050b828461068c565b505050565b6004818154811061051f575f80fd5b905f5260205f2090600302015f91509050805f01805461053e90611c15565b80601f016020809104026020016040519081016040528092919081815260200182805461056a90611c15565b80156105b55780601f1061058c576101008083540402835291602001916105b5565b820191905f5260205f20905b81548152906001019060200180831161059857829003601f168201915b5050505050908060010180546105ca90611c15565b80601f01602080910402602001604051908101604052809291908181526020018280546105f690611c15565b80156106415780601f1061061857610100808354040283529160200191610641565b820191905f5260205f20905b81548152906001019060200180831161062457829003601f168201915b505050505090806002015f9054906101000a900473ffffffffffffffffffffffffffffffffffffffff16905083565b5f805f8381526020019081526020015f20600101549050919050565b61069582610670565b61069e8161110e565b6106a88383611122565b50505050565b6106b661120b565b73ffffffffffffffffffffffffffffffffffffffff168173ffffffffffffffffffffffffffffffffffffffff161461071a576040517f6697b23200000000000000000000000000000000000000000000000000000000815260040160405180910390fd5b6107248282611212565b505050565b7fa49807205ce4d355092ef5a8a18f56e8913cf4a201fbe287825b095693c217756107538161110e565b60405180606001604052808481526020018381526020015f81525060015f8681526020019081526020015f205f820151815f0190816107929190611de2565b5060208201518160010155604082015181600201559050507f408bd38fab55422dd8e6b059c527441102dfdedd8f00efe28b2b851e3a3733158484846040516107dd93929190611eb1565b60405180910390a150505050565b7f36a5c4aaacb6b388bbd448bf11096b7dafc5652bcc9046084fd0e95b1fb0b2cc6108158161110e565b60015f8381526020019081526020015f206001015460015f8481526020019081526020015f20600201541061087f576040517f08c379a000000000000000000000000000000000000000000000000000000000815260040161087690611f37565b60405180910390fd5b60015f8381526020019081526020015f206002015f8154809291906108a390611f82565b919050555060025f3373ffffffffffffffffffffffffffffffffffffffff1673ffffffffffffffffffffffffffffffffffffffff1681526020019081526020015f2082908060018154018082558091505060019003905f5260205f20015f90919091909150553373ffffffffffffffffffffffffffffffffffffffff167ec3072b23f2402628d7aa140dabf092230c8af81b0062ee1246dda1d40123248360405161094e91906114ea565b60405180910390a25050565b6003602052815f5260405f208181548110610973575f80fd5b905f5260205f20015f915091509054906101000a900473ffffffffffffffffffffffffffffffffffffffff1681565b7fa49807205ce4d355092ef5a8a18f56e8913cf4a201fbe287825b095693c2177581565b5f805f8481526020019081526020015f205f015f8373ffffffffffffffffffffffffffffffffffffffff1673ffffffffffffffffffffffffffffffffffffffff1681526020019081526020015f205f9054906101000a900460ff16905092915050565b6001602052805f5260405f205f91509050805f018054610a4890611c15565b80601f0160208091040260200160405190810160405280929190818152602001828054610a7490611c15565b8015610abf5780601f10610a9657610100808354040283529160200191610abf565b820191905f5260205f20905b815481529060010190602001808311610aa257829003601f168201915b5050505050908060010154908060020154905083565b606060035f8373ffffffffffffffffffffffffffffffffffffffff1673ffffffffffffffffffffffffffffffffffffffff1681526020019081526020015f20805480602002602001604051908101604052809291908181526020018280548015610b9157602002820191905f5260205f20905b815f9054906101000a900473ffffffffffffffffffffffffffffffffffffffff1673ffffffffffffffffffffffffffffffffffffffff1681526020019060010190808311610b48575b50505050509050919050565b7f36a5c4aaacb6b388bbd448bf11096b7dafc5652bcc9046084fd0e95b1fb0b2cc610bc78161110e565b600460405180606001604052808581526020018481526020013373ffffffffffffffffffffffffffffffffffffffff16815250908060018154018082558091505060019003905f5260205f2090600302015f909190919091505f820151815f019081610c339190611de2565b506020820151816001019081610c499190611de2565b506040820151816002015f6101000a81548173ffffffffffffffffffffffffffffffffffffffff021916908373ffffffffffffffffffffffffffffffffffffffff16021790555050503373ffffffffffffffffffffffffffffffffffffffff167fe266b3eed12a7b64ddc283658fbc8a51154fc4b363a5c027a5aecf0ccdecec6f84604051610cd89190611fc9565b60405180910390a2505050565b5f801b81565b7fbc89434ca2514fee8e4f1c01e12ea3f98386861885da7e20823bb874ad54a49d81565b60606004805480602002602001604051908101604052809291908181526020015f905b82821015610ed6578382905f5260205f2090600302016040518060600160405290815f82018054610d6290611c15565b80601f0160208091040260200160405190810160405280929190818152602001828054610d8e90611c15565b8015610dd95780601f10610db057610100808354040283529160200191610dd9565b820191905f5260205f20905b815481529060010190602001808311610dbc57829003601f168201915b50505050508152602001600182018054610df290611c15565b80601f0160208091040260200160405190810160405280929190818152602001828054610e1e90611c15565b8015610e695780601f10610e4057610100808354040283529160200191610e69565b820191905f5260205f20905b815481529060010190602001808311610e4c57829003601f168201915b50505050508152602001600282015f9054906101000a900473ffffffffffffffffffffffffffffffffffffffff1673ffffffffffffffffffffffffffffffffffffffff1673ffffffffffffffffffffffffffffffffffffffff168152505081526020019060010190610d32565b50505050905090565b610ee882610670565b610ef18161110e565b610efb8383611212565b50505050565b7f36a5c4aaacb6b388bbd448bf11096b7dafc5652bcc9046084fd0e95b1fb0b2cc610f2b8161110e565b610f557fbc89434ca2514fee8e4f1c01e12ea3f98386861885da7e20823bb874ad54a49d836109c6565b610f94576040517f08c379a0000000000000000000000000000000000000000000000000000000008152600401610f8b90612033565b60405180910390fd5b60035f3373ffffffffffffffffffffffffffffffffffffffff1673ffffffffffffffffffffffffffffffffffffffff1681526020019081526020015f2082908060018154018082558091505060019003905f5260205f20015f9091909190916101000a81548173ffffffffffffffffffffffffffffffffffffffff021916908373ffffffffffffffffffffffffffffffffffffffff1602179055503373ffffffffffffffffffffffffffffffffffffffff167f6f3f710746d9466035ec0fe5d09ef32666f67790fd2a29dc938342336124040e8360405161107591906118a4565b60405180910390a25050565b7f36a5c4aaacb6b388bbd448bf11096b7dafc5652bcc9046084fd0e95b1fb0b2cc81565b5f7f01ffc9a7000000000000000000000000000000000000000000000000000000007bffffffffffffffffffffffffffffffffffffffffffffffffffffffff1916827bffffffffffffffffffffffffffffffffffffffffffffffffffffffff1916149050919050565b61111f8161111a61120b565b6112fb565b50565b5f61112d83836109c6565b6112015760015f808581526020019081526020015f205f015f8473ffffffffffffffffffffffffffffffffffffffff1673ffffffffffffffffffffffffffffffffffffffff1681526020019081526020015f205f6101000a81548160ff02191690831515021790555061119e61120b565b73ffffffffffffffffffffffffffffffffffffffff168273ffffffffffffffffffffffffffffffffffffffff16847f2f8788117e7eff1d82e926ec794901d17c78024a50270940304540a733656f0d60405160405180910390a460019050611205565b5f90505b92915050565b5f33905090565b5f61121d83836109c6565b156112f1575f805f8581526020019081526020015f205f015f8473ffffffffffffffffffffffffffffffffffffffff1673ffffffffffffffffffffffffffffffffffffffff1681526020019081526020015f205f6101000a81548160ff02191690831515021790555061128e61120b565b73ffffffffffffffffffffffffffffffffffffffff168273ffffffffffffffffffffffffffffffffffffffff16847ff6391f5c32d9c69d2a47ea670b442974b53935d1edc7fd64eb21e047a839171b60405160405180910390a4600190506112f5565b5f90505b92915050565b61130582826109c6565b6113485780826040517fe2517d3f00000000000000000000000000000000000000000000000000000000815260040161133f929190612051565b60405180910390fd5b5050565b5f604051905090565b5f80fd5b5f80fd5b5f7fffffffff0000000000000000000000000000000000000000000000000000000082169050919050565b6113918161135d565b811461139b575f80fd5b50565b5f813590506113ac81611388565b92915050565b5f602082840312156113c7576113c6611355565b5b5f6113d48482850161139e565b91505092915050565b5f8115159050919050565b6113f1816113dd565b82525050565b5f60208201905061140a5f8301846113e8565b92915050565b5f73ffffffffffffffffffffffffffffffffffffffff82169050919050565b5f61143982611410565b9050919050565b6114498161142f565b8114611453575f80fd5b50565b5f8135905061146481611440565b92915050565b5f819050919050565b61147c8161146a565b8114611486575f80fd5b50565b5f8135905061149781611473565b92915050565b5f80604083850312156114b3576114b2611355565b5b5f6114c085828601611456565b92505060206114d185828601611489565b9150509250929050565b6114e48161146a565b82525050565b5f6020820190506114fd5f8301846114db565b92915050565b5f819050919050565b61151581611503565b811461151f575f80fd5b50565b5f813590506115308161150c565b92915050565b5f806040838503121561154c5761154b611355565b5b5f61155985828601611456565b925050602061156a85828601611522565b9150509250929050565b5f6020828403121561158957611588611355565b5b5f61159684828501611489565b91505092915050565b5f81519050919050565b5f82825260208201905092915050565b5f5b838110156115d65780820151818401526020810190506115bb565b5f8484015250505050565b5f601f19601f8301169050919050565b5f6115fb8261159f565b61160581856115a9565b93506116158185602086016115b9565b61161e816115e1565b840191505092915050565b6116328161142f565b82525050565b5f6060820190508181035f83015261165081866115f1565b9050818103602083015261166481856115f1565b90506116736040830184611629565b949350505050565b5f602082840312156116905761168f611355565b5b5f61169d84828501611522565b91505092915050565b6116af81611503565b82525050565b5f6020820190506116c85f8301846116a6565b92915050565b5f80604083850312156116e4576116e3611355565b5b5f6116f185828601611522565b925050602061170285828601611456565b9150509250929050565b5f80fd5b5f80fd5b7f4e487b71000000000000000000000000000000000000000000000000000000005f52604160045260245ffd5b61174a826115e1565b810181811067ffffffffffffffff8211171561176957611768611714565b5b80604052505050565b5f61177b61134c565b90506117878282611741565b919050565b5f67ffffffffffffffff8211156117a6576117a5611714565b5b6117af826115e1565b9050602081019050919050565b828183375f83830152505050565b5f6117dc6117d78461178c565b611772565b9050828152602081018484840111156117f8576117f7611710565b5b6118038482856117bc565b509392505050565b5f82601f83011261181f5761181e61170c565b5b813561182f8482602086016117ca565b91505092915050565b5f805f6060848603121561184f5761184e611355565b5b5f61185c86828701611489565b935050602084013567ffffffffffffffff81111561187d5761187c611359565b5b6118898682870161180b565b925050604061189a86828701611489565b9150509250925092565b5f6020820190506118b75f830184611629565b92915050565b5f6060820190508181035f8301526118d581866115f1565b90506118e460208301856114db565b6118f160408301846114db565b949350505050565b5f6020828403121561190e5761190d611355565b5b5f61191b84828501611456565b91505092915050565b5f81519050919050565b5f82825260208201905092915050565b5f819050602082019050919050565b6119568161142f565b82525050565b5f611967838361194d565b60208301905092915050565b5f602082019050919050565b5f61198982611924565b611993818561192e565b935061199e8361193e565b805f5b838110156119ce5781516119b5888261195c565b97506119c083611973565b9250506001810190506119a1565b5085935050505092915050565b5f6020820190508181035f8301526119f3818461197f565b905092915050565b5f8060408385031215611a1157611a10611355565b5b5f83013567ffffffffffffffff811115611a2e57611a2d611359565b5b611a3a8582860161180b565b925050602083013567ffffffffffffffff811115611a5b57611a5a611359565b5b611a678582860161180b565b9150509250929050565b5f81519050919050565b5f82825260208201905092915050565b5f819050602082019050919050565b5f82825260208201905092915050565b5f611ab48261159f565b611abe8185611a9a565b9350611ace8185602086016115b9565b611ad7816115e1565b840191505092915050565b5f606083015f8301518482035f860152611afc8282611aaa565b91505060208301518482036020860152611b168282611aaa565b9150506040830151611b2b604086018261194d565b508091505092915050565b5f611b418383611ae2565b905092915050565b5f602082019050919050565b5f611b5f82611a71565b611b698185611a7b565b935083602082028501611b7b85611a8b565b805f5b85811015611bb65784840389528151611b978582611b36565b9450611ba283611b49565b925060208a01995050600181019050611b7e565b50829750879550505050505092915050565b5f6020820190508181035f830152611be08184611b55565b905092915050565b7f4e487b71000000000000000000000000000000000000000000000000000000005f52602260045260245ffd5b5f6002820490506001821680611c2c57607f821691505b602082108103611c3f57611c3e611be8565b5b50919050565b5f819050815f5260205f209050919050565b5f6020601f8301049050919050565b5f82821b905092915050565b5f60088302611ca17fffffffffffffffffffffffffffffffffffffffffffffffffffffffffffffffff82611c66565b611cab8683611c66565b95508019841693508086168417925050509392505050565b5f819050919050565b5f611ce6611ce1611cdc8461146a565b611cc3565b61146a565b9050919050565b5f819050919050565b611cff83611ccc565b611d13611d0b82611ced565b848454611c72565b825550505050565b5f90565b611d27611d1b565b611d32818484611cf6565b505050565b5b81811015611d5557611d4a5f82611d1f565b600181019050611d38565b5050565b601f821115611d9a57611d6b81611c45565b611d7484611c57565b81016020851015611d83578190505b611d97611d8f85611c57565b830182611d37565b50505b505050565b5f82821c905092915050565b5f611dba5f1984600802611d9f565b1980831691505092915050565b5f611dd28383611dab565b9150826002028217905092915050565b611deb8261159f565b67ffffffffffffffff811115611e0457611e03611714565b5b611e0e8254611c15565b611e19828285611d59565b5f60209050601f831160018114611e4a575f8415611e38578287015190505b611e428582611dc7565b865550611ea9565b601f198416611e5886611c45565b5f5b82811015611e7f57848901518255600182019150602085019450602081019050611e5a565b86831015611e9c5784890151611e98601f891682611dab565b8355505b6001600288020188555050505b505050505050565b5f606082019050611ec45f8301866114db565b8181036020830152611ed681856115f1565b9050611ee560408301846114db565b949350505050565b7f436f757273652069732066756c6c0000000000000000000000000000000000005f82015250565b5f611f21600e836115a9565b9150611f2c82611eed565b602082019050919050565b5f6020820190508181035f830152611f4e81611f15565b9050919050565b7f4e487b71000000000000000000000000000000000000000000000000000000005f52601160045260245ffd5b5f611f8c8261146a565b91507fffffffffffffffffffffffffffffffffffffffffffffffffffffffffffffffff8203611fbe57611fbd611f55565b5b600182019050919050565b5f6020820190508181035f830152611fe181846115f1565b905092915050565b7f4e6f742061206d656e746f7200000000000000000000000000000000000000005f82015250565b5f61201d600c836115a9565b915061202882611fe9565b602082019050919050565b5f6020820190508181035f83015261204a81612011565b9050919050565b5f6040820190506120645f830185611629565b61207160208301846116a6565b939250505056fea264697066735822122000db0c51284bb2e7759a51b42e11c9ff2e6726ceec8fd133903ab4ec35c32cd364736f6c63430008140033",
  "immutableReferences": {},
  "source": "// SPDX-License-Identifier: MIT\r\npragma solidity ^0.8.20;\r\n\r\nimport \"@openzeppelin/contracts/access/AccessControl.sol\";\r\n\r\ncontract StudentFeatures is AccessControl {\r\n    bytes32 public constant ADMIN_ROLE = keccak256(\"ADMIN_ROLE\");\r\n    bytes32 public constant STUDENT_ROLE = keccak256(\"STUDENT_ROLE\");\r\n    bytes32 public constant MENTOR_ROLE = keccak256(\"MENTOR_ROLE\");\r\n\r\n    struct Course {\r\n        string name;\r\n        uint maxSeats;\r\n        uint enrolledCount;\r\n    }\r\n    mapping(uint => Course) public courses;\r\n    mapping(address => uint[]) public studentEnrollments;\r\n\r\n    mapping(address => address[]) public mentors;\r\n\r\n    struct Resource {\r\n        string title;\r\n        string url;\r\n        address uploader;\r\n    }\r\n    Resource[] public resources;\r\n\r\n\r\n    event CourseAdded(uint courseId, string name, uint maxSeats);\r\n    event CourseEnrolled(address indexed student, uint courseId);\r\n    event MentorAssigned(address indexed student, address mentor);\r\n    event ResourceShared(address indexed uploader, string title);\r\n\r\n\r\n    constructor() {\r\n\r\n        _grantRole(ADMIN_ROLE, msg.sender);\r\n        _setRoleAdmin(STUDENT_ROLE, ADMIN_ROLE);\r\n        _setRoleAdmin(MENTOR_ROLE, ADMIN_ROLE);\r\n    }\r\n\r\n\r\n    function assignRole(address account, bytes32 role) public onlyRole(ADMIN_ROLE) {\r\n        grantRole(role, account);\r\n    }\r\n\r\n\r\n    function addCourse(uint courseId, string memory name, uint maxSeats) public onlyRole(ADMIN_ROLE) {\r\n        courses[courseId] = Course(name, maxSeats, 0);\r\n        emit CourseAdded(courseId, name, maxSeats);\r\n    }\r\n\r\n    function enrollInCourse(uint courseId) public onlyRole(STUDENT_ROLE) {\r\n        require(courses[courseId].enrolledCount < courses[courseId].maxSeats, \"Course is full\");\r\n        courses[courseId].enrolledCount++;\r\n        studentEnrollments[msg.sender].push(courseId);\r\n        emit CourseEnrolled(msg.sender, courseId);\r\n    }\r\n\r\n\r\n    function assignMentor(address mentor) public onlyRole(STUDENT_ROLE) {\r\n        require(hasRole(MENTOR_ROLE, mentor), \"Not a mentor\");\r\n        mentors[msg.sender].push(mentor);\r\n        emit MentorAssigned(msg.sender, mentor);\r\n    }\r\n\r\n    function getMentors(address student) public view returns (address[] memory) {\r\n        return mentors[student];\r\n    }\r\n\r\n\r\n    function shareResource(string memory title, string memory url) public onlyRole(STUDENT_ROLE) {\r\n        resources.push(Resource(title, url, msg.sender));\r\n        emit ResourceShared(msg.sender, title);\r\n    }\r\n\r\n    function getResources() public view returns (Resource[] memory) {\r\n        return resources;\r\n    }\r\n}\r\n",
  "sourcePath": "C:\\Users\\Kevin\\WebstormProjects\\CS4207-Blockchain-Project\\contracts\\StudentFeatures.sol",
  "compiler": {
    "name": "solc",
    "version": "0.8.20+commit.a1b79de6.Emscripten.clang"
  },
  "schemaVersion": "3.4.16",
  "updatedAt": "2024-12-08T22:46:10.949Z",
  "devdoc": {
    "errors": {
      "AccessControlBadConfirmation()": [
        {
          "details": "The caller of a function is not the expected one. NOTE: Don't confuse with {AccessControlUnauthorizedAccount}."
        }
      ],
      "AccessControlUnauthorizedAccount(address,bytes32)": [
        {
          "details": "The `account` is missing a role."
        }
      ]
    },
    "events": {
      "RoleAdminChanged(bytes32,bytes32,bytes32)": {
        "details": "Emitted when `newAdminRole` is set as ``role``'s admin role, replacing `previousAdminRole` `DEFAULT_ADMIN_ROLE` is the starting admin for all roles, despite {RoleAdminChanged} not being emitted signaling this."
      },
      "RoleGranted(bytes32,address,address)": {
        "details": "Emitted when `account` is granted `role`. `sender` is the account that originated the contract call. This account bears the admin role (for the granted role). Expected in cases where the role was granted using the internal {AccessControl-_grantRole}."
      },
      "RoleRevoked(bytes32,address,address)": {
        "details": "Emitted when `account` is revoked `role`. `sender` is the account that originated the contract call:   - if using `revokeRole`, it is the admin role bearer   - if using `renounceRole`, it is the role bearer (i.e. `account`)"
      }
    },
    "kind": "dev",
    "methods": {
      "getRoleAdmin(bytes32)": {
        "details": "Returns the admin role that controls `role`. See {grantRole} and {revokeRole}. To change a role's admin, use {_setRoleAdmin}."
      },
      "grantRole(bytes32,address)": {
        "details": "Grants `role` to `account`. If `account` had not been already granted `role`, emits a {RoleGranted} event. Requirements: - the caller must have ``role``'s admin role. May emit a {RoleGranted} event."
      },
      "hasRole(bytes32,address)": {
        "details": "Returns `true` if `account` has been granted `role`."
      },
      "renounceRole(bytes32,address)": {
        "details": "Revokes `role` from the calling account. Roles are often managed via {grantRole} and {revokeRole}: this function's purpose is to provide a mechanism for accounts to lose their privileges if they are compromised (such as when a trusted device is misplaced). If the calling account had been revoked `role`, emits a {RoleRevoked} event. Requirements: - the caller must be `callerConfirmation`. May emit a {RoleRevoked} event."
      },
      "revokeRole(bytes32,address)": {
        "details": "Revokes `role` from `account`. If `account` had been granted `role`, emits a {RoleRevoked} event. Requirements: - the caller must have ``role``'s admin role. May emit a {RoleRevoked} event."
      },
      "supportsInterface(bytes4)": {
        "details": "See {IERC165-supportsInterface}."
      }
    },
    "version": 1
  },
  "userdoc": {
    "kind": "user",
    "methods": {},
    "version": 1
  }
}